:1000000080720020B96C0000E56A0000B56C000049
:10001000B56C0000B56C0000B56C0000B56C00005C
:10002000000000000000000000000000B56C0000AF
:10003000B56C000000000000B56C0000B56C00005D
:10004000715D0000E9290000F52B0000316500001A
:10005000453D000071390000A9380000B53A0000A4
:10006000313B0000194100000D56000029580000E6
:100070000D560000F9560000353200000000000067
:100080000000000000000000000000000000000070
:100090000000000000000000000000000000000060
:1000A0000000000000000000000000000000000050
:1000B0000000000000000000000000000000000040
:1000C0000000000000000000000000000000000030
:1000D0000000000000000000000000000000000020
:1000E0000000000000000000000000000000000010
:1000F0000000000000000000000000000000000000
:1001000000000000000000000000000000000000EF
:1001100000000000000000000000000000000000DF
:1001200000000000000000000000000000000000CF
:1001300000000000000000000000000000000000BF
:1001400000000000000000000000000000000000AF
:10015000000000000000000000000000000000009F
:10016000000000000000000000000000000000008F
:10017000000000000000000000000000000000007F
:10018000000000000000000000000000000000006F
:10019000000000000000000000000000000000005F
:1001A000000000000000000000000000000000004F
:1001B000000000000000000000000000000000003F
:1001C000FFFFFFFFFFFFFFFFFFFFFFFFFFFFFFFF3F
:1001D000FFFFFFFFFFFFFFFFFFFFFFFFFFFFFFFF2F
:1001E000FFFFFFFFFFFFFFFFFFFFFFFFFFFFFFFF1F
:1001F000FFFFFFFFFFFFFFFFFFFFFFFFFFFFFFFF0F
:1002000010B5054C237833B9044B13B1044800E012
:1002100000BF0123237010BD100900200000000062
:10022000A8AB000008B5034B1BB10349034800E02D
:1002300000BF08BD0000000014090020A8AB0000AA
:1002400038B5052204250E240A4B0B495B680B4880
:100250005B68C3E900549A60DA6005F02DF8084B3A
:10026000186000B100BE00220821064B9A809971E7
:100270009A6038BD30A100003CA10000180F00209A
:10028000080E00207C0900208388B3F5806F06D01B
:10029000B3F5006F06D10122034B1A70704701229B
:1002A000024B1A70704700BF800100202C0900200B
:1002B00010B503780446012B4AD0022B55D0002BF1
:1002C00046D09FED2F0A0021601C00F0C9FBDFED36
:1002D0002D7AB4EEE70AF1EE10FA09D5DFED2A7AAD
:1002E000B4EEE70AF1EE10FAC4BF284B83ED000A22
:1002F0009FED230A0021E01C00F0B2FBDFED247A21
:10030000B4EEE70AF1EE10FA09D5DFED227AB4EE89
:10031000E70AF1EE10FAC4BF1C4B83ED010A9FED12
:100320001E0A4FF4A471601D00F09AFBDFED1B7AEA
:10033000B4EEE70AF1EE10FA09D5DFED197AB4EE62
:10034000E70AF1EE10FAC4BF104B83ED020A10BDAC
:10035000144A82F82430E3791BB9012382F825304E
:10036000AFE7002382F82530ABE70E4A82F824304D
:10037000C179012918BF032382F82530A1E700BF06
:100380000AD7A33C0000784200001842980B0020D6
:100390000000D2430000B9430AD7233C0000B44216
:1003A0000000B4C2C8090020CF4B2DE9F0411A78F3
:1003B000002A35D1CD4C94F842307BB30022CC4D8D
:1003C00084F842202B784BB394F843300133DBB2EE
:1003D0005A1E84F84330082A20D8DFE812F0830040
:1003E000BB00DA0013014C01A101BF01F2010900B9
:1003F000C04A32231046002640F80C3BBE4BF7EEB5
:10040000000A93ED110A31462E7000F017FB3146B9
:10041000B84ABA4804F078FD84F84360BDE8F0813A
:100420000021B74DB14C2A46B448197004F01EFEA5
:1004300094F83930002BF1D12B68013B262BBAD828
:1004400001A252F823F000BFD7090000E90900001B
:10045000F109000031090000B7030000390900006C
:10046000B7030000B7030000B7030000B7030000A4
:10047000B7030000B703000041090000290900008C
:10048000B703000019080000130800005508000019
:1004900025080000B7030000B7030000B703000001
:1004A000B7030000B7030000B7030000B703000064
:1004B000B7030000B7030000B7030000B703000054
:1004C000B7030000AD09000061080000B908000092
:1004D000C5080000A1090000490900001D0900002D
:1004E000B9090000874E3378DF0697D54FF0000832
:1004F0001023804F85F800803B607F4D94F82430B6
:10050000DFED810A3B7395ED000A414607F10D00CE
:1005100000F094FADFED7C0A95ED010A414607F1FF
:100520000F0000F08BFA95ED020ADFED780A4FF428
:10053000A47107F1110000F081FA94F825303A46D1
:10054000FB7441466D4804F0DFFC337823F0100360
:10055000337063E76B4C23789E067FF55FAF654A87
:1005600012231046002640F80C3B634BDFED670A70
:1005700093ED030A4FF4A4712E7000F05FFA314638
:100580005C4A5E4804F0C0FC237823F0200323700B
:1005900044E75C4E3378D8077FF540AFDFF85481ED
:1005A000202300274046DFED5A0A40F80C3B94ED2B
:1005B000000A39462F7000F041FADFED560A39463D
:1005C00094ED010A08F10E0000F038FADFED520A4E
:1005D000394694ED020A08F1100000F02FFADFED21
:1005E0004D0A94ED030A394608F1120000F026FA8C
:1005F00042463946414804F087FC337823F0010332
:1006000033700BE73F4E337899077FF507AFDFF87C
:10061000E480222300274046DFED3D0A40F80C3BF2
:1006200094ED060A39462F7000F008FADFED390A1A
:10063000394694ED070A08F10E0000F0FFF9DFEDEE
:10064000360A394694ED040A08F1100000F0F6F974
:10065000DFED300A94ED050A394608F1120000F08A
:10066000EDF942463946254804F04EFC337823F034
:1006700002033370D2E6234E33785A077FF5CEAEAD
:10068000DFF87080242300274046DFED240A40F87D
:100690000C3B94ED0A0A39462F7000F0CFF9DFEDDC
:1006A0001F0A394694ED0B0A08F10E0000F0C6F956
:1006B000DFED160A394694ED0C0A08F1100000F03F
:1006C000BDF9DFED160A94ED0D0A394608F1120066
:1006D00000F0B4F942463946084804F015FC337876
:1006E00023F00403337099E62C090020C809002088
:1006F000800100207C090020980B0020180F0020AA
:10070000300900202D090020000048420000C842A6
:1007100000401C46002474490050C34700007A443E
:10072000B54E33781B077FF579AEB44A26231046C1
:1007300094ED080A002440F80C3BDFEDB10A4FF4B9
:10074000A4712C7000F07AF92146AC4AAD4804F04F
:10075000DBFB337823F0080333705FE6A74C3023CC
:1007600000262046A84F40F80C3BDFEDA80A97ED85
:10077000140A31462E7000F061F9DFEDA10A4FF442
:10078000A47197ED150A04F10E0000F057F9DFEDA2
:100790009F0A314697ED120A04F1100000F04EF95D
:1007A000DFED970A4FF4A47197ED130A04F11200DC
:1007B00000F044F922463146BDE8F041914804F08A
:1007C000A3BB8E4C3123204600268F4F40F80C3BB4
:1007D000F7EE000A97ED1A0A4FF400412E7000F070
:1007E0002DF9F7EE000A314697ED100A04F10E00DC
:1007F00000F024F9864A874B12881B7800EE102AF5
:10080000F7EE000AB8EE400A314604F111002374F5
:10081000CEE78148FFF74CFD774A137843F0100389
:100820001370C8E59FED7D0A4FF4A4717A4800F07B
:1008300017F9F2EE087AB4EEE70AF1EE10FA09D5EC
:10084000FAEE087AB4EEE70AF1EE10FAC4BF6E4B86
:1008500083ED030A684A137843F020031370AAE576
:1008600000216D489FED6E0A00F0FAF8F0EE407A34
:1008700000216C489FED6C0AC4ED007A00F0F0F89E
:10088000F0EE407A002169489FED690AC4ED017AD3
:1008900000F0E6F8F0EE407A00219FED630A65482B
:1008A000C4ED027A00F0DCF8534A84ED030A1378B1
:1008B00043F0010313707EE54F4A137843F00203BF
:1008C000137078E5002154489FED550A00F0C8F8F0
:1008D000F0EE407A002153489FED530AC4ED067AAA
:1008E00000F0BEF8F0EE407A002150489FED500A2B
:1008F000C4ED077A00F0B4F8F0EE407A00219FEDE5
:100900004A0A4C48C4ED047A00F0AAF83A4A84ED49
:10091000050A137843F0020313704CE5364A137846
:1009200043F00803137046E5002384F8383042E5AD
:10093000022384F839303EE5032384F839303AE560
:10094000012384F8383036E5002133489FED3A0A18
:1009500000F086F8F0EE407A002132489FED360A2A
:10096000C4ED0A7A00F07CF8F0EE407A00212F48BE
:100970009FED2A0AC4ED0B7A00F072F8F0EE407A8F
:1009800000219FED2D0A2B48C4ED0C7A00F068F889
:10099000194A84ED0D0A137843F0040313700AE535
:1009A000154A137843F00403137004E5124A1378D0
:1009B00043F001031370FEE49FED180A4FF4A47195
:1009C000154800F04DF80C4A84ED080A137843F0FE
:1009D00008031370EFE40121074A84F83E101378EE
:1009E00043F03F031370E6E4002384F83E30E2E472
:1009F000012384F83930DEE42D0900207C09002031
:100A00000000C842180F0020980B00200000484248
:100A1000E80D00207C0C00203C0900200AD7233C74
:100A200017B7D1383E090020BD3786354009002070
:100A3000ACC52737420900206F12833A07EE901A9F
:100A4000F8EEE77A37EE800A60EE200AFCEEE07AF4
:100A500017EE903AC3F3072202704370704700BF4D
:100A600007EE901A0378B8EEE77A06EE903A4378EC
:100A70009FED076A07EE903AF8EE666AF8EEE77ABD
:100A8000E6EE867A97EE807AB0EE470A704700BFAE
:100A9000000080432E4B9FED2F5AD3ED006A93ED5B
:100AA000016A66EE856ADFED2C4A93ED027AD3ED9A
:100AB000037AFCEEE66A26EE056ADFED285A37EE89
:100AC000247A77EEA47A264A264B92F801C093F84E
:100AD000240093F8251013785071634492F802C0F3
:100AE00027EE257A5CFA83F392F803C067EEA57AC5
:100AF0005CFA83F350FA83F316EE900AFCEEC66AB2
:100B000016EE90CABCEEC77AFCEEE77A03EB102330
:100B1000034403EB1C2363449CFA9CFCA2F808C02A
:100B200017EE10CA40BAD08017EE900A03EB1C23D0
:100B3000634403EB1023034451FA83F39CFA9CFCB7
:100B400040BA9173A2F80AC090811371704700BF38
:100B5000980B0020000048420000A4430000C84257
:100B6000240B0020C8090020594B5A79012A7ED055
:100B7000022A00F0A380002A79D09A799FED556A65
:100B800007EE102ADA79B8EE477A07EE902AF8EEE7
:100B9000E77ADFED516AE7EE067AF4EEE67AF1EEF7
:100BA00010FA06D59FED4D7AF4EEC77AF1EE10FA01
:100BB0007CDC1A7A9FED476A07EE102A5A7AB8EE63
:100BC000477A07EE902AF8EEE77ADFED456AE7EE1E
:100BD000067AF4EEE67AF1EE10FA06D59FED417A48
:100BE000F4EEC77AF1EE10FA58DC9A7A9FED396A82
:100BF00007EE102ADA7AB8EE477A07EE902AF8EE76
:100C0000E77ADFED396AE7EE067AF4EEE67AF1EE9E
:100C100010FA06D59FED357AF4EEC77AF1EE10FAA8
:100C200032DC1A7B5B7B07EE102A07EE903AB8EEB7
:100C3000477AF8EEE77A9FED276ADFED2D6AE7EE57
:100C4000067AF4EEE67AF1EE10FA0FD59FED297AE6
:100C5000F4EEC77AF1EE10FA08DDDFED276A9FEDBA
:100C6000277AA7EEA67A264B83ED037A70472549AB
:100C7000987B81F8242018B9012281F825207CE78F
:100C8000002281F8252078E7DFED1B6A9FED1B7AB3
:100C9000A7EEA67A1A4A82ED027AC2E79FED1A7A87
:100CA00067EE877A164AC2ED017A9EE79FED167AC3
:100CB00067EE877A124AC2ED007A7AE7987B11498B
:100CC000012881F8242018BF032281F8252054E749
:100CD0000C0A00200000804300C041450080ED4424
:100CE0000010A446008890460048234700F0B9460B
:100CF00000D0044700E0F6460AD7233C0000A4C316
:100D0000980B0020C80900200AD7A33C2DE9F04326
:100D10002DED068BCA499FEDCB3A4B7DDFEDCA3AEC
:100D200006EE103A8B7DB8EE466A04EE103A4B7927
:100D3000B8EEC44A07EE103A8B79A6EE034A04EEE9
:100D4000903ACB7924EE234A0AEE903A0B7AF8EEE9
:100D50006AAA05EE103A4B7AB8EEC55A01EE903AFF
:100D60008B7AF8EE611A08EE103ACB7AB8EEC88AA0
:100D700006EE903A0B7BF8EE666A05EE903AF8EED6
:100D8000E55A4B7BE6EE835A07EE903A8B7BA1EE59
:100D9000838A02EE103ACB7BDFEDAC1A0AEE103AF2
:100DA0000B7CB8EE4AAA02EE903A4B7CF8EEE22AAF
:100DB00009EE903A8B7C9FEDA61A00EE103ACB7CA0
:100DC000B8EE477A09EE103A0B7DB8EE499A06EE76
:100DD000103ACB7DB8EEC66A00EE903A0B7EF8EE84
:100DE000677A06EE903AF8EE600AF8EEE44AB8EE5A
:100DF000C22AAAEE835AF8EEE66A74EE611AA9EEE8
:100E0000036AEAEE032ADFED938A25EE015AA7EE84
:100E1000832AE7EE034AE0EE836ADFED8F0A8F4F05
:100E200065EE815A62EE812A26EE016AC7ED081A44
:100E30009FED8B1ADFED8B1A22EE282A64EEA84A6A
:100E400087ED015ADFED888A25EE205A28EE218AA7
:100E500066EE816AC7ED004ABCEEC55A64EEA84A48
:100E60004B7EC7ED035A07EE903A87ED062A8B7E3C
:100E7000C7ED072A87ED056AC7ED0A6A87ED028A82
:100E8000CC7E91F81CC007EE103A65EEA05A62EED7
:100E9000A02A26EE206AFCEEE44A00EE904A15EE07
:100EA000104A05EE10CA91F81DC0897F14EE905AC1
:100EB000F8EE677AF8EEC54AB8EEC77A05EE101A72
:100EC0009FED6A9AF8EE699AB8EEC00AA7EE837AA7
:100ED000B8EEC55AFCEEE55A22EE282A08EE90CA72
:100EE000A9EE830A28EE098ADFED617A15EE901AE1
:100EF00027EE017AF0EE455AF8EE600AB0EE645A39
:100F0000F8EE688A20EE210AFCEEC24ABCEEC88ADE
:100F100087ED0B7AA0EE835A27EE277AE8EE835A04
:100F200014EE909A87ED040A18EE10CAFCEEE24A1D
:100F300020EE090ADFED4F1A25EE235ABCEEC77AE0
:100F400065EE815A4C4A14EE908A82F80AC0FCEE93
:100F5000C04ACCF3072C66EEA76ABCEEC66A82F8DC
:100F600009C024EE214A17EE10CA25EE217A65EE5B
:100F7000A77A1173C1F307219571D172C5F30725C3
:100F800014EE901A5571FCEEE66A16EE105ABCEE9D
:100F9000C77ABCEEC46AFCEEE77A14729174C4F3AB
:100FA0000724C1F3072116EE90EAD471517416EEAE
:100FB000104A17EE101A82F81AC0CCF3072C82F8E8
:100FC00019C017EE90CA82F80E9082F8108015753D
:100FD000947582F818E01177C9F30729C8F3072838
:100FE000C5F30725C4F30724CEF3072EC1F3072169
:100FF00087ED0C5AC7ED0D5A82F80D9082F80F80DC
:10100000D574547582F817E0D17682F81EC0CCF3FF
:10101000072C10460123002682F81DC002E01FFAAB
:101020008CF30130052B03F1010CF8D001781F2B54
:101030003144CEB2F3D11671BDEC068BBDE8F0831E
:101040000C0A0020000080430AD7233C0000A44380
:10105000BD37863517B7D13800247449C809002038
:101060006F12833AACC5273700401C460050C34777
:1010700000007A440000C842340B00203E4BDFEDF4
:101080003F3A93ED105ABCEEC55AD3ED114A93ED99
:10109000126AD3ED1A6ADFED3A2A9FED3A3A93EDE0
:1010A000157AD3ED137A15EE102AFCEEE44A26EEFB
:1010B000236A76EEA26A9FED344AD3ED145A37EED6
:1010C000037A77EE837A314830B50274C2F307228F
:1010D000C27314EE902ABCEEC66AFCEEE66A65EEB8
:1010E000A35A27EE047A67EE847A52BA16EE10CA33
:1010F000828216EE902AFCEEE55ABCEEC77AFCEE30
:10110000E77A234C80F80AC02488CCF3072C64BA11
:101110008273C2F30722448280F809C015EE904A18
:1011200017EE10CA427317EE902A1A4D84712D786B
:10113000C4F3072480F808C00273CCF3072CC2F371
:10114000072201234FF0000E01464574447180F8D8
:1011500007C0C27202E01FFA8CF30131052B03F1C4
:10116000010CF8D00A78162B72445FFA82FEF2D195
:1011700080F804E030BD00BF980B0020000048421A
:10118000000000470000A4430000C8420C0B0020F0
:10119000E80D00207C0C00202DE9F04F05220025F1
:1011A0006D496E486E4C6F4B086083B084F83950BF
:1011B0001A709FED6D0AFFF76DFC94ED001A9FED1C
:1011C0006B6AD4ED011A94ED022A9FED697A94EDD1
:1011D000044A21EE001A61EE861A22EE072A24EE56
:1011E000074ABCEEC17AD4ED032A17EE10AABCEE72
:1011F000E17A94ED063A17EE109A62EE862ABCEE7A
:10120000C27AD4ED073A17EE108A23EE003ABCEE0C
:10121000E27A63EE863A17EE107ABCEEC37AD4ED2A
:10122000054A17EE106ABCEEE37ADFED525A94EDF0
:101230000A5A2B4624EE866A17EE105ABCEEC47A80
:10124000D4ED087ADFED4C6A17EE10EA25EE255A48
:10125000BCEEC67ADFED490A77EEA67A17EE10CA21
:10126000BCEEC57A67EEA07AD4ED0B6A4449FCEE79
:10127000E77A0D74C5F30725CD7317EE105A66EEA5
:10128000A56A0D76C5F30725CD7517EE905AFCEECD
:10129000E67A3C4A81F8089081F80A800F738E73D1
:1012A00081F812E0C6F3072681F814C08D75CAF3E1
:1012B000072BC5F30725C9F30729C8F30728C7F388
:1012C0000727CEF3072ECCF3072C8DED017A0A60A9
:1012D0004E7381F805B017EE906A81F806A081F888
:1012E000079081F80980CF7281F811E081F813C06E
:1012F0004D7594ED0C7AD4ED0D7A27EE207A67EED9
:10130000A57ABCEEC77AFCEEE77AC6F3072517EE9E
:10131000904A4D7617EE105A8C770D77C4F3072458
:10132000C5F30725084601228E76CD764C7701E07D
:10133000A2B20130052A02F10104F9D005781F2A72
:101340002B44DBB2F4D1104A10480B71106003B08B
:10135000BDE8F04FFFF792BE240B002055F0000AC5
:10136000C8090020530B002000401C46002474498B
:101370000050C34700007A440000A4430000C84264
:10138000340B002055F0001A0C0B002055F0001112
:10139000F8B5734D2B78ABB9724C734D2B7813B1F4
:1013A00094F83B3023B941F26F73A28F9A4208D967
:1013B0006E4802F00FF801F0D9FC002384F83B30AE
:1013C000A387F8BD00276A4E664C327869496748A2
:1013D000A78701F0A1FF94F839202F70002AF0D1DF
:1013E000614D2B78002BDED030782A70002800F079
:1013F000B48013465F4F042B02D0F95C0A44D2B28A
:10140000013399B28842F6D83B7993420BD005223A
:101410005949564801F09AFF012384F83B302B7854
:10142000002BC5D1BFE77B78013B0D2BEFD8DFE860
:1014300003F080776E655D544C46413A2B191007D6
:1014400005224E49494801F081FF002384F83830D5
:10145000A4E705224949454801F078FF012384F8B3
:1014600038309BE70527FFF751FC3A4641493F4892
:10147000377001F051FF3A4640493C4801F066FFA1
:10148000042384F8393089E70527FFF76DFB3A46D6
:1014900038493648377001F03FFF05223749334855
:1014A00001F054FF7AE77A7932490532D2B22F48F7
:1014B0003270F0E706222F492C483270EBE71F22EA
:1014C0002F492A4801F042FF68E7FFF7E3FA0F22AD
:1014D0002C49264801F03AFF60E7052227492348B6
:1014E00001F034FF032384F8393057E7FFF7C6FDD6
:1014F000162225491D4801F029FF4FE705221F4903
:101500001A4801F023FF022384F8393046E7052208
:101510001A49164801F01AFF012384F839303DE7D3
:1015200005221649114801F011FF002384F83A30D2
:1015300034E7052211490D4801F008FF012100227E
:101540002B7884F83A10A287002B3FF43AAF94F836
:101550003B30002B7FF42CAFF8BD064F54E700BFA3
:10156000B90E0020C8090020950600204810002070
:10157000530B00200C0A0020840100208C01002065
:10158000340B0020240B00200C0B00202DE9F0412F
:1015900000224FF07E569FED495ADFED497ADFED8C
:1015A000495A9FED496A4FF0010C4FF0000E9FED34
:1015B000477ADFED476A9FED471ADFED471A9FED47
:1015C000472ADFED472AB2EE023AFAEE023A9FEDE1
:1015D000454ADFED454A454B454C464D9C60464CDF
:1015E00046495C60464C4748A662E5622262E2607A
:1015F00084ED045A6161444C444FA662E562226264
:10160000E260C4ED047A6161414C1860A662E56253
:101610002262E260C4ED045A84ED056A3D4C3E4806
:10162000A662DFF80C813D4EDD60E5623C4B3D4D2E
:101630002262E260C4ED047A61613B4CB86187F8D4
:1016400000C0A8F800E088F802E07A617261374AC9
:10165000A3F824E086F800C085F800C084F800C034
:1016600087ED041AC6ED041A85ED042AC5ED052A96
:1016700084ED043AC4ED053A83ED025AC3ED045AF1
:1016800083ED056A83ED0C4AC6ED066AC6ED076A6E
:10169000C3ED007AC3ED067A83ED0A7A83ED0B7A07
:1016A00083ED0D7AC2ED004AF861A861E861A0619E
:1016B000E0615960D960D961BDE8F081B81E853D0F
:1016C0000AD7A33B2497FF3ABD37863567661E418C
:1016D000A69BC43A000070420000D243000096422C
:1016E000000096C20000C64243337E37980B0020AC
:1016F0000000A040000080BF0000C843ACC52737F1
:10170000800C0020000040425C0B0020BC0D00203B
:10171000400C0020040C002052491D39940D00207B
:10172000C80900206C0D0020440D0020540B00203F
:101730007C0C002000B5294B294A998C93ED0A6A4C
:10174000A2F801102749D3ED0B6AD1ED007A93ED91
:101750000C7A93ED0D4A93ED003AD3ED013AD3EDB7
:10176000024A93ED035AD3ED045A27EE866A67EED8
:10177000A66A27EE877A67EE847A5969D3F818E06B
:10178000D86993F838C0184B83ED043AC3ED053A95
:10179000164BC3ED044A83ED055A154B5961C3ED51
:1017A000045A1449144B486183ED066A83ED076AB5
:1017B0001248134BC1F810E01249C0ED066AC0EDA3
:1017C000076A81ED067A81ED077AC3ED067AC3EDEB
:1017D000077A82F803C05DF804FB00BFC809002047
:1017E0007C0C0020540B00205C0B0020800C00209F
:1017F000400C0020040C0020BC0D00206C0D0020CB
:10180000440D0020940D00203A4B70B5DB78002B7E
:101810005AD0394B002293ED087A384BFFEE006A1C
:1018200083ED007AF0EE477A5A609A60B7EE006A6C
:10183000F4EEC67AF1EE10FA314A324BC2ED006A8C
:1018400083ED007A0CDDB0EE006AF0EE086AB0EECF
:10185000677AB4EEE67AF1EE10FA77EEC67AF6DC45
:10186000BFEE007AF4EEC77AF1EE10FA0CD5B0EEC6
:10187000006AF8EE086AB0EE677AB4EEE67AF1EE46
:1018800010FA77EE867AF6D4F5EEC07AB7EE007AE3
:10189000F1EE10FA4CBF77EE877A77EEC77A1A4CE2
:1018A0001A4D94E80E001648C5ED007A05F0E2FAEC
:1018B00094E80E00134805F0DDFA94E80E0028467F
:1018C000BDE8704005F0D6BA0C4BB7EE006AD3ED18
:1018D000016AF5EEC06A93ED007AF1EE10FAD3EDED
:1018E000027A4CBF76EE866A76EEC66A77EE277A83
:1018F0009CE700BF7C0C0020C8090020BC0C002025
:10190000340E00205C0E0020AC0E0020840E00205F
:1019100038B51C4B1B78022B33D04FF082451A4B45
:101920001A48996C1C6D0163596DC46241635C680F
:10193000174904650166174C1749DA6CC0E916149B
:10194000C563164C164D174995F802C0C0E91941F8
:101950008263154C154A164980F844C0C0E91C142E
:10196000D3F800C0134902649A68DB68C0F848C025
:101970004365C166C26405F05BFBBDE83840FFF714
:1019800043BF38BD580B0020980B0020BC0C002032
:101990006C0D0020940D0020BC0D0020440D002093
:1019A0007C0C0020400C0020040C0020903EFA3CEF
:1019B0005C0B0020800C002040F20F112DE9F04F4D
:1019C000784A794C0025DFF81092784E784FDFF88E
:1019D0000C8287B0A1604B4607CA8DE807003246EB
:1019E0003946404605F0E2F9D8F808307148E3641A
:1019F00063653369D8F810B00593D8F80C30D7F880
:101A000008A0D7F810E0D6F808C0E365D8F814802D
:101A1000C4F850B0C4F858B0C4F86080C0F84CA006
:101A2000C0F854A0FB686449C3657F69C0F850E002
:101A3000C0F858E00766C1F84CC0C1F854C0F76858
:101A4000059BCF6576690B658B650E66D9F8083006
:101A50005A4A5B4FD3645365D9E90363D665D9F815
:101A60001460136593651666A56485648D6495643A
:101A7000BD64EFF31082012383F3108851490B6892
:101A800033B94024A0F5A410A0F5A050037304734B
:101A90000B6801330B6082F310884B4B4B4AD3F831
:101AA000F8026FF31040C3F8F802C3F8F822D3F835
:101AB000FC026FF31040C3F8FC02C3F8FC22D3F819
:101AC00038036FF31040C3F83803C3F83823D3F852
:101AD0003C036FF31040C3F83C03C3F83C23D3F836
:101AE00060036FF31040C3F86003C3F86023D3F8BA
:101AF00064036FF31040C3F86403C3F86423D3F89E
:101B0000B8036FF31040C3F8B803C3F8B823D3F891
:101B1000BC036FF31040C3F8BC03C3F8BC23EFF35E
:101B20001082012383F310880B6813B10B68013B0B
:101B30000B600B681BB9802025490B73087382F377
:101B40001088194B1B49586B012440F4807058636E
:101B5000586B194A40F080705863486B40F48070AD
:101B60004863486B40F08070486340F20F10516B3F
:101B700041F480715163516B41F080715163D2F82F
:101B8000341141F48071C2F83411D2F8341141F0AB
:101B90008071C2F834110F4A1470586007B0BDE864
:101BA000F08F00BFAC0E0020009016405C0E0020AD
:101BB000340E00200091164000921640009316400B
:101BC00000981640C810002000F8014000000103F2
:101BD00000FD0140B80E0020840E00200C0E0020F5
:101BE000F8B5EFF31082012383F31088774D2B684B
:101BF0001BB9402076490B7308732B6801332B60A7
:101C000082F3108804220723724C734ED4F8F81222
:101C100005206FF31041C4F8F812C4F8F822D4F884
:101C2000FC724FF47A716FF31047C4F8FC72C4F879
:101C3000FC32D4F838736FF31047C4F83873C4F823
:101C40003823D4F83C736FF31047C4F83C73C4F8DE
:101C50003C33D4F860736FF31047C4F86073C4F872
:101C60006023D4F864736FF31047C4F86473C4F846
:101C70006433D4F8B8736FF31047C4F8B873C4F87A
:101C8000B823D4F8BC236FF31042C4F8BC23C4F8C3
:101C9000BC33B6F8A2306FF38A23A6F8A23004F062
:101CA000EDFED4F8F8224D4B6FF31042C4F8F82241
:101CB000C4F8F832D4F8FC226FF31042C4F8FC22C6
:101CC000C4F8FC32D4F838236FF31042C4F8382338
:101CD000C4F83833D4F83C236FF31042C4F83C23E3
:101CE000C4F83C33D4F860236FF31042C4F8602387
:101CF000C4F86033D4F864236FF31042C4F864234B
:101D0000C4F86433D4F8B8236FF31042C4F8B8238E
:101D1000C4F8B833D4F8BC236FF31042C4F8BC2322
:101D2000C4F8BC33EFF31082012383F310882B68CF
:101D300013B12B68013B2B602B681BB98020244911
:101D40000B73087382F310884FF47A71012004F04A
:101D500095FE214B0024B3F8A2206FF38A22A3F84A
:101D6000A220FFF7E7FC9FED1E7ADFED1E7A1E4BE7
:101D70001E4A997800230239022928BFF0EE477ADB
:101D8000516D966CD56C106D194AC2ED037A194AE3
:101D9000D3601362184AD3601362184AD360136287
:101DA000174AD3601362174B174ADE60174BD16096
:101DB000DD60174BD860174B1C70FFF7FDFD01224B
:101DC000154B16491A700C70F8BD00BFC8100020E2
:101DD00000FD014000F8014000F101400000010356
:101DE0001F852B3F52B8BE3F7C0C0020980B002073
:101DF000BC0C00205C0B0020800C0020400C00205C
:101E0000040C0020BC0D0020440D00206C0D0020AF
:101E1000940D0020580B00205A0B0020590B002075
:101E200030B440F20F14464B46489C605D6B464907
:101E30006FF308255D635D6B444A6FF318655D635E
:101E4000456B6FF308254563456B6FF31865456374
:101E5000486B6FF308204863486B6FF31860486362
:101E6000516B6FF308215163516B6FF3186151632C
:101E70005C60EFF31082012383F3108834490B6810
:101E80001BB940243348037304730B6801330B60A0
:101E900082F310880422304BD3F8F8026FF310401D
:101EA000C3F8F802C3F8F822D3F8FC026FF310402D
:101EB000C3F8FC02C3F8FC22D3F838036FF31040D8
:101EC000C3F83803C3F83823D3F83C036FF310404A
:101ED000C3F83C03C3F83C23D3F860036FF310400E
:101EE000C3F86003C3F86023D3F864036FF31040B2
:101EF000C3F86403C3F86423D3F8B8036FF3104046
:101F0000C3F8B803C3F8B823D3F8BC036FF3104089
:101F1000C3F8BC03C3F8BC23EFF31082012383F39F
:101F200010880B6813B10B68013B0B600B681BB981
:101F3000802008490B73087382F3108830BC704707
:101F400000901640009116400092164000931640F3
:101F5000C810002000FD014000F80140F8B59C4B7E
:101F60009A781AB91B78012B48D0F8BD022AFCD107
:101F70001B78012BF9D1974A9FED977AD2ED157A0C
:101F8000F4EEC77AF1EE10FA73D59FED947AF4EE81
:101F9000C77AF1EE10FA6CDD91490B70D2ED146A3C
:101FA00092ED017AB2EE066A36EEC77AB4EEC67AE0
:101FB000F1EE10FA06DCBAEE066AB4EEC67AF1EE7D
:101FC00010FA04D5874C2178002900F03581FAEE0B
:101FD000027AB4EEE77AF1EE10FAC6DDF2EE027A9A
:101FE000B4EEE77AF1EE10FABFD57E4C2378002BE1
:101FF00040F0468102227C4B1A70F8BD754AB7EE5C
:10200000087AD2ED137AF4EEC77AF1EE10FA42D5DF
:10201000BFEE087AF4EEC77AF1EE10FA3BDD7049B4
:102020000B70D2ED126A92ED007A9FED706A36EE77
:10203000C77AB4EEC67AF1EE10FA06DC9FED6C6A50
:10204000B4EEC67AF1EE10FA04D5664C2178002978
:1020500000F09980DFED677AB4EEE77AF1EE10FADE
:1020600083DDDFED657AB4EEE77AF1EE10FABCD4E9
:10207000F8BD9FED627AF4EEC77AF1EE10FA47DD13
:102080000021574B1970574D2978002953D0564CD1
:1020900000232370F8BD9FED5A7AF4EEC77AF1EE73
:1020A00010FA06DC9FED577AF4EEC77AF1EE10FADB
:1020B0003BD500214A4B19704A4D29780029E6D1B9
:1020C000514C524B906CDC60514B92ED157AD860BC
:1020D000504B514CC3ED037A0023D2F850C04F4807
:1020E0004F4A2362E3604F4EDFF848E14E4F3E4CCB
:1020F0003362F3600362C3601362D3608EED037AD0
:10210000C7F80CC02170FFF757FC01232B70BFE705
:102110009FED467AF4EEC77AF1EE10FAB0D4304B68
:102120001B78002B7FF43AAFADE72D4B1B78002BCB
:102130007FF477AFC0E73E4C344B906CDC60344B9F
:1021400092ED147AD8600023D2F84CC0324C334858
:10215000334A344E2362E360DFF8CCE03362F3604D
:102160000362C3601362D3602A4F324B1E4CC3ED2F
:10217000037A8EED037AC7F80CC02170FFF71CFCC0
:1021800001232B7084E7204E204B156DDE60204B21
:10219000506DC3ED036A1F4B264AC3ED037A224BF1
:1021A000D060DD6000231D481D4A1E4F1A4E0E4DA3
:1021B0003B62FB603362F3600362C3601362D3600F
:1021C0002970FFF7F9FB01232B702370F8BD00BFC6
:1021D0007C0C0020980B0020CDCC4C3ECDCC4CBECE
:1021E000590B00205A0B0020580B00206666064051
:1021F000666606C03333F3BF3333F33FCDCCCC3EFA
:102200006666E63F6666E6BF1F852B3FBC0C002076
:10221000BC0D00206C0D0020800C0020400C002024
:10222000040C00205C0B0020940D0020CDCCCCBE13
:1022300052B8BE3F440D0020144B154E956CDE6025
:10224000144BD06CDD600023134A144DD060144A47
:102250001448C2ED036A144A2B62C2ED037A134A92
:10226000EB601362D360124D124A0362C3601362C3
:10227000D3602970FFF7A0FB01232B702370F8BDFA
:10228000FFF7CEFD00232370B4E600BFBC0C002096
:1022900052B8BE3FBC0D00206C0D00205C0B00202E
:1022A000940D0020400C0020440D0020800C0020E4
:1022B000580B0020040C002070B440F20F14174B90
:1022C00017489C605E6B17496FF308265E635E6B70
:1022D000154A6FF318665E63466B144D6FF308265C
:1022E0004663466B6FF318664663486B6FF30820CE
:1022F0004863486B6FF318604863516B6FF30821B4
:102300005163516B6FF318615163B5F8A22042F429
:102310008062A5F8A2205C6070BC704700901640F7
:1023200000911640009216400093164000F10140C3
:10233000F8B5604E96F83940022C6BD0032C5DD076
:10234000012C53D000235C4D86F839302C68012CC9
:1023500009D0022C04D1594C2378022B00F09A802A
:1023600000232B60F8BD554E3278002A00F09B8088
:10237000022AF5D040F20F17514A524C9760D2F81A
:1023800034E0514863F3082EC2F834E0D2F834E068
:102390004E4963F3186EC2F834E0D4F834E0DFF845
:1023A00034C163F3082EC4F834E0D4F834E063F3A6
:1023B000186EC4F834E0446B63F308244463446B40
:1023C00063F318644463486B63F308204863486B05
:1023D00063F318604863BCF8A21041F48061ACF864
:1023E000A2105760337000232B60F8BD334D2B785B
:1023F000002BA7D1FFF7F4FB2C70A3E72F4C237819
:10240000022B9FD100F042F9314B1B88002B99D150
:10241000237097E7294C2378022B93D040F20F15B5
:10242000274B4FF0000C9D60D3F834E025486FF344
:10243000082EC3F834E0D3F834E023496FF3186E64
:10244000C3F834E0D0F834E0204A6FF3082EC0F827
:1024500034E0D0F834E01F4F6FF3186EC0F834E06A
:10246000486B6FF308204863486B6FF3186048634C
:10247000516B6FF308215163516B6FF31861516316
:10248000B7F8A22042F48062A7F8A2205D6084F829
:1024900000C057E700F0FAF80D4B1B88002B7FF4C3
:1024A0005FAF23705CE7FFF79BFB002334702B606A
:1024B000F8BD00BFC8090020F40D00207C0C0020EE
:1024C000009016400091164000921640009316406E
:1024D000E80D002000F101402A4A9FED2B7AD2ED51
:1024E0000D7AF4EEC77AF1EE10FA284B3FDC9FED3F
:1024F000287AF4EEC77AF1EE10FA38D4D2ED0F7ADA
:10250000B2EE087AF4EEC77AF1EE10FA2ADCBAEEEF
:10251000087AF4EEC77AF1EE10FA23D4DFED1D7AD3
:1025200092ED0E7AB4EEE77AF1EE10FA03DD197847
:1025300041F020011970DFED187A92ED0C7AB4EEBB
:10254000E77AF1EE10FA03DD5A7842F002025A708F
:102550001B888BB110B5114C2378012B0DD00223B1
:10256000237010BD197841F004011970D6E719786D
:1025700041F002011970C1E77047FFF79DFE022389
:10258000237010BD980B00200000B442E80D00201D
:102590000000B4C20000D243000078427C0C00204E
:1025A000204ADFED217A92ED107AB4EEE77ADFED82
:1025B0001F7A92ED1A7AF1EE10FAB4EEE77A1C4B1C
:1025C000C2BF197841F080011970F1EE10FA1ADDDE
:1025D0001849DFED197A0A88013292B207EE102A03
:1025E000B8EEC77AB4EEE77AF1EE10FA0A800EDCA4
:1025F0001B883BB110B5114C2378012B0CD0022362
:10260000237010BD704700210A4A1180F0E75A7804
:1026100042F001025A70EBE7FFF74EFE02232370EF
:1026200010BD00BF980B002000008C4200007A45CE
:10263000E80D0020E40D00200060EA467C0C00203C
:102640000E4BD3F80031DA0708D510200C4A0D499B
:10265000137843F001031370C1F88000074BD3F8DF
:1026600000319B0708D51020054A0649137843F02E
:1026700008031370C1F88000704700BF00A0084035
:10268000E80D002000E100E0704700BF534A9FEDD5
:10269000547AD2ED0D7AF4EEC77AF1EE10FA10B456
:1026A0006FD9504BD2ED0F7AB2EE087AF4EEC77ABA
:1026B000F1EE10FA06D8BAEE087AF4EEC77AF1EE27
:1026C00010FA59DAD2ED0E7A9FED477AF4EEC77A16
:1026D000F1EE10FA03D519786FF34511197092EDE8
:1026E0000C7ADFED426AB4EEE67AF1EE10FA03D529
:1026F00059786FF3410159703D49D1F80001C00785
:102700005CD43B49D1F80001800747D410243948F4
:10271000394904604978F1B1DFED347AB4EEE77AF3
:10272000F1EE10FA23DA19786FF386111970DFEDE4
:10273000337A92ED107AB4EEE77AF1EE10FA03D51F
:102740001A786FF3C7121A705A785DF8044B6FF35A
:1027500000025A7070479FED247AF4EEC77AF1EECA
:1027600010FA187861F304101870DCDADFE71978D2
:102770006FF304111970D6E719786FF3820119709D
:10278000A0E79FED1F7AF4EEC77AF1EE10FA154B31
:10279000A2BF19786FF34101197083E71948007BD4
:1027A00010F00100B2D1D1F8004160F34104C1F84A
:1027B0000041197860F3C3011970A7E71248B0F817
:1027C0004400C4049DD5D1F800016FF30000C1F8A6
:1027D000000119786FF30001197092E7980B00203F
:1027E0000000B442E80D00200080C04300002842F1
:1027F00000A0084000E100E07C0C002000005C42EA
:102800000000B4C200420F4000F101402DE98848A9
:10281000504C0027B4F8A2304F4E43F40063A4F8A4
:10282000A23000F031FCFEF7B1FEFEF7B5FC01204E
:102830004A4904F023F900F02FFADFF83491DFF869
:1028400034A1474DDFF830B14FF00108FFF786FBA8
:10285000FEF79EFDFDF7A8FD3368092B1AD999F8FC
:1028600000203760002A37D0B4F8A430D904C3F36D
:10287000003251D43B490B8801339BB2C82B0B80EB
:1028800008D939490B782BB1384B0A70C3F800804E
:1028900089F80020FFF74CFD44F620632A689A422D
:1028A000D4D92F60B4F86230B4F86220C3F3802327
:1028B00083F0010363F38A22A4F862209BF80030BE
:1028C0001BB3022BB4F8C23014D167F34D334FF071
:1028D0000108A4F8C230B9E7BAF8003001339BB25E
:1028E000B3F5FA7FAAF8003024BF89F80080AAF86F
:1028F0000020CFE7B4F8C220C3F3403383F00103D4
:1029000063F34D32A4F8C2209EE7B4F8C23043F41A
:102910000053A4F8C23097E7B4F8A430C3F34032B0
:102920009B0411D40F494B8801339BB2C82B4B80B9
:10293000B0D90D490B78002BACD002230A7089F86E
:1029400000200A4A1360A5E7064B1F60064B83F878
:1029500000809FE700F10140FC0D002040420F0085
:10296000F80D0020040E002092010020F40D00203C
:1029700091010020000E00207C0C0020022800D0D5
:102980007047024B0248596801F052BB649E000038
:10299000C40E002030B4114D114C124B296822682E
:1029A000481C511C9A8F286093F83E000132216028
:1029B0009A8760B1B3F84020013292B2B2F57A7FC3
:1029C00007D300210122A3F8401083F8422030BC35
:1029D0007047A3F8402030BC704700BFFC0D0020BA
:1029E000F80D0020C80900202DE9F8436C4B186B46
:1029F0009A6BD96B5C6B6B4B21F000411F786A4B73
:102A000022F0004220F0004024F0004499611A6155
:102A10002FB9DFF8D0E19EF80050002D78D1D3E92E
:102A20000A6507EE901A641BB8EEE77A07EE904A43
:102A3000801BB8EE672A07EE900AB8EE670A07EE29
:102A4000902A9FED5A3ADFED5A3ADFED5A2AD3ED3C
:102A5000165A93ED186AD3ED196ADFED574AF8EE6E
:102A6000E77ADFED561AE2EE234A67EEA17A93ED9C
:102A7000175A65EE835A26EE036ADFED510A9FED81
:102A8000513A9FED514A9FED511A9FED512A66EE42
:102A9000A26AE7EE835ADFED4F3AA0EE204A27EE16
:102AA000017A64EE824A25EE225AC3ED0C7AF0EEEA
:102AB000667AA4EE235AA7EE036AE4EEA37A012F06
:102AC00083ED0D4A83ED0E7AC3ED0F4A83ED135A61
:102AD00083ED175A83ED146AC3ED125AC3ED165AEB
:102AE00083ED186AC3ED157AC3ED197ADC6158617C
:102AF00053D0FFF7F1FC0121374A384BC2F8541D7F
:102B0000D3F804236FF31042C3F80423BDE8F8831D
:102B1000334EDFF8D4803578DFF8D0900135EDB250
:102B20003570D8F80060632D06EB000CD9F8006012
:102B3000C8F800C004EB0608C9F800807FF66FAF44
:102B4000BCFBF5FCACF50066ACF2AB7CBCF1AA0FAB
:102B50009E6209D93E46DFF898909F6299F801C0BD
:102B60004CF0020C89F801C0B8FBF5F8A8F5FA653D
:102B7000A8F27B78B8F1AA0FDD6209D90025DFF849
:102B80007080DD6298F801C04CF0020C88F801C03A
:102B90004FF0000C8EF800C043E7FEF7B9FEA8E73F
:102BA000001017407C0C0020980B00200C022B3FDB
:102BB0005940533A3480773FCB59CEBFD09B8A3CA3
:102BC000F298013EE7FBA93EF69081C3AE47013E75
:102BD000081FF841B9FC073D0000174000600040A5
:102BE000EA0D002094060020EC0D0020F00D0020DE
:102BF000E80D0020204B10B51C691B681F4A24F00B
:102C0000004423F00043C2E90843A4F561711C4C61
:102C1000A3F56173A4FB01C1A4FB034319481A4C3B
:102C2000C1F3CF01C3F3CF0300EB830300EB8101BA
:102C300008681968637810645164ABB9D2ED137AEF
:102C400092ED127A67EE877AC2ED1A7AFFF7A8FC46
:102C500002210E4A0E4BC2F8541DD3F808236FF31D
:102C60001042C3F8082310BDD2ED157A92ED147A04
:102C700067EE877AE8E700BF00101740980B002046
:102C8000CDCCCCCC940100207C0C0020000017405F
:102C900000600040704700BF40F20F11034B044A30
:102CA0009B6804485B685160184700BFFCA00000A7
:102CB00000901640FC0E002038B5264B2649DC68F3
:102CC0002648236898476368254924489847002385
:102CD000244AD2F8085CC2F8083CD2F8803CD907F4
:102CE000FBD4204BD3F8802C9207FBD403226FF047
:102CF000604440F2E71040F20331C3F88C2CC3F873
:102D0000B42CC3F8B84CC3F8C40CC3F8001CD3F8F7
:102D10008C2C6AB9D3F8A02C52B9D3F8A42C3AB9A8
:102D2000D3F8B02C22B91049C3F8085C0A6005E05A
:102D30001B210D4AC3F8085C116000BE01214FF44D
:102D40007A7003F09BFE07210322064B5964C3F8F7
:102D5000082C38BDC09E0000D09E0000DC0E002074
:102D600060A0000000001740080E002038B50F4C8E
:102D70000F49204600F0AEFB0E4A0F4B5168186811
:102D80000D680E4B82782B4043F4804342F01002D2
:102D900043F0100382700B60204600F005FB2046D4
:102DA000BDE838400522064900F0B6BA48100020B8
:102DB00074A4000094A40000E4A100008F00CE00E1
:102DC0000C0A002030B10379022B04D0012B04BF80
:102DD000034A137070470122024B1A70704700BFFC
:102DE000B90E0020950600202DE9F8434FF00108A8
:102DF0005E4B5F4E9B685F491B685F489847F26A6D
:102E00005E4B68F3124298681969F262326C5C4F4B
:102E100042F480023264F0647065DA685B69F265DE
:102E2000584A3165B16533663B689268564D126801
:102E300073665649B3665648F3669047EB6A554A3F
:102E400068F31243EB622B6C926843F480032B64AB
:102E50003B68D2F800906B66AB66EB664E4B4F4C0E
:102E60009A684F48EA646A65D3E90312E9655B69C9
:102E70004C492A65AA652B66C847E36A4A4A68F343
:102E80001243E362236C926843F480032364D2F814
:102E900000903A68454B6266A266E2669A684448CA
:102EA000E2646265D3E90312E1655B694149226529
:102EB000A2652366C84703223F4B4049D86A68F39E
:102EC0001240D862186C40F4800018643868586664
:102ED0009866D8668868D8645865D1E90370DF655C
:102EE0004969186598651966716B62F3040171632D
:102EF000716B62F314417163696B62F3040169637E
:102F0000696B62F314416963616B62F3040161638D
:102F1000616B62F314416163596B62F3040159639D
:102F2000596B62F314415963726B6FF30822726339
:102F3000726B6FF3186272636A6B6FF308226A63D5
:102F40006A6B6FF318626A63626B6FF308226263E5
:102F5000626B6FF3186262635A6B6FF308225A63F5
:102F60005A6B6FF318625A63BDE8F88328A2000019
:102F70000090164034A20000A80F00200C0E002084
:102F8000AC0E0020A4A2000000911640B0A20000E8
:102F9000C80F002020A30000340E0020009216402D
:102FA000E80F00202CA300009CA300005C0E002072
:102FB00008100020A8A3000000931640840E0020F3
:102FC000224B70B59C68224D2368284621499847BA
:102FD0004FF46561A36828469847E36828469847F8
:102FE0001D4B1E4D9C681E49236828469847636800
:102FF000284698471B4B1C4D9C68284623681B4954
:1030000098470021A36828469847E36828469847D0
:10301000174B184D9C68284623681749984700218C
:10302000A36828469847E36828469847134B144DF1
:103030009C682846236813499847A36828460021BE
:1030400098472846E368BDE870401847A8A10000EB
:10305000600F0020B4A1000054A10000300F002038
:1030600060A1000078A10000400F002084A10000B2
:1030700090A10000500F00209CA10000C0A1000002
:10308000700F0020CCA10000C82240F2B36340F2D0
:10309000EB5170B501264FF48045474C4748C4E9D1
:1030A000013284B021600670454B94E807008DE83A
:1030B0000700444A4449454803F078FEFFF794FE70
:1030C000434B44499B6844481B689847434B4449D9
:1030D000DA6A6FF31242DA62424A1A642068DE64E6
:1030E0008219F2401A655A659A65DA651A66586659
:1030F0009866D866C1F88050BFF34F8FBFF36F8FCB
:1031000000229020384C394BA26381F80E03D3F88B
:103110003803374C62F31040364AC3F83803C1F81D
:1031200080510D60536B344943F480538968536375
:103130000B683248324998472046324901F0C6FBB5
:1031400043221321204601F0EDFB204601F0F2FB63
:10315000FFF7B2FDFFF734FF2B4B2C4D9B682C493A
:103160001B682C4898472C4C2C49284600F070FFCF
:10317000284600F0AFFF2046294900F0ABF9294A64
:10318000294B516818680D68284B82782B4043F40E
:10319000804343F0100342F0100282700B6020461F
:1031A00000F002F905222046214900F0B5F804B0EC
:1031B000BDE87040FDF744B8AC0E0020B80E00200A
:1031C000840E00205C0E0020340E00200C0E002027
:1031D00018A4000024A40000281000200098164025
:1031E00000E100E001001000CC1000200060004071
:1031F000BC0E002000921640FCA00000FC0E002037
:1032000008A10000849E000008A20000CC0E00204F
:1032100014A20000900F002048100020709E0000B3
:1032200074A4000094A40000E4A100008F00CE006C
:103230000C0A002030B42B4B2B49D3F838236FF302
:103240001042C3F838230B78012B1ED0274A284898
:10325000284CD0E906355365D5659365D4E9060455
:1032600015660122244B5865DC65986523481C6669
:10327000D0E90640C3F85441C3F85C01C3F8584193
:10328000C3F860010A7030BC70471D4A1D4D1E4CCA
:10329000D4E90804C5F8103C5065D465906514481D
:1032A0001466D0E90835134CC2F85431C2F85C51A9
:1032B000C2F85831104BD4E90804C2F8605158657F
:1032C000DC6598650D481C66D0E90820C3F85421D8
:1032D000C3F85C01C3F858210022C3F860010A70EA
:1032E00030BC704700600040B80E002000911640CE
:1032F000340E00205C0E002000921640840E002048
:1033000000901640000017400C0E002008B5FFF793
:103310007DFA002008BD00BFF8B5C3691546DA681C
:1033200004460E466AB18378916803F00303013BBB
:1033300025FA03F310688F68324600219BB2B84724
:1033400010B90020C4E90565F8BD00BFD0B5064638
:103350001046346AA36823F44013A360A36C5A0098
:10336000FCD5A36823F01003A360237FC3F30012EE
:10337000DB06FAD4F369C6E903101F6977B168B1B7
:10338000B378BC6803F00303013B20FA03F3A4689D
:10339000386832619BB2A04728B9346A0020A3681C
:1033A00043F01013A360D0BD844630B40024DCF891
:1033B00020300D689A68204622F4441121F0110152
:1033C00022F440129960CCF80C401D619A6030BC28
:1033D000704700BF3C4B42689A4273D110B5044617
:1033E000026A936823F440139360936823F01003F8
:1033F0009360137FDB06FCD40123E269334992F921
:103400000720500902F01F02203003FA02F241F8AF
:103410002020BFF34F8FBFF36F8FE26992F909202D
:10342000500902F01F0203FA02F2203041F8202076
:10343000BFF34F8FBFF36F8F206A826822F4803210
:103440008260E26992F90520500902F01F0203FA36
:1034500002F2203041F82020BFF34F8FBFF36F8F6F
:10346000E26992F90B20500902F01F02934000F12B
:10347000200241F82230BFF34F8FBFF36F8FE36913
:10348000DA6822B1936810681B6A9847E3691B6980
:103490001BB19A681868136A9847EFF310810123EB
:1034A00083F310884FF00043E069094A0078C34075
:1034B000506803435360536881F310880023184613
:1034C000636010BD072070474249435300E100E0AC
:1034D0000040084000222DE9F04101260B780270DF
:1034E00003F5800303F58C531B0203624B69CF691C
:1034F00043628B69C161C3628378826266F30103B0
:1035000083704B780D46044623B90222837862F318
:1035100001038370012095F90BC0CF4B4FEA5C1279
:103520000CF01F06203200FA06F6A97A43F8226052
:10353000BFF34F8FBFF36F8FC84A0CF1C00652F82C
:1035400026E009016FF3104E42F826E0C44E03EB6B
:103550000C0EC9B28EF8001346F82C4095F905C040
:1035600029794FEA5C1E0CF01F080EF1200E00FABC
:1035700008F843F82E80BFF34F8FBFF36F8F0CF125
:10358000C00E52F82E8009016FF3104842F82E80C9
:10359000C9B203EB0C0E8EF8001346F82C4095F9D7
:1035A00007C0A9794FEA5C1E0CF01F080EF1200E2F
:1035B00000FA08F843F82E80BFF34F8FBFF36F8FE8
:1035C0000CF1C00E52F82E8009016FF3104842F83A
:1035D0002E80C9B203EB0C0E8EF8001346F82C4077
:1035E00095F909C0297A4FEA5C1E0CF01F080EF10C
:1035F000200E00FA08F843F82E80BFF34F8FBFF378
:103600006F8F0CF1C00E52F82E8009016344C9B2CD
:103610006FF3104842F82E8083F80013EB6846F8E9
:103620002C40DBB14FF4002C5968E6690A68C2F8F7
:1036300000C096F801C0266ABCF1000F05D192F8CF
:1036400003C060F3051C82F803C056609A681868CE
:10365000136898470646002840F00E812B69C3B1D5
:103660004FF0006059680A681060E0694678206A87
:1036700004302EB94FF0010CD6786CF30516D670D5
:1036800090609A681868136898470646002840F0CA
:10369000F680EFF31080012383F310884FF000428F
:1036A000704B297822FA01F15A6822EA01025A6025
:1036B0005B6880F310884FF48062E869236AD0F871
:1036C00004E09A60697890F800C0090201F440763D
:1036D000E978890301F4804246EA02014278467B98
:1036E000D2031FFA82F8720502F400164FEA0C6248
:1036F00002F040720A4342EA08023243ACF102018E
:1037000042F4805201292E78AD785A6140F2C1808E
:10371000DEF800201A61027B02F0030242F0300161
:1037200035B1022D0CBF4FF480724FF4407211433B
:1037300040F21F25F54000268278B7F80AC012072C
:1037400002F080520A43E9074FF00005DA609E61FB
:103750004FF0010648BF444AC77B48BF5A62827B8C
:10376000017C02F0010207F01F0042EA002201F092
:103770001F0142EA01421A63C4E90355C4E9055531
:103780003A4AA4F808C0D4F81CC09A669CF905000F
:10379000324900F1C00E420951F82E80920000F02B
:1037A0001F0002F1604206FA00F002F5614265F383
:1037B000104841F82E80C2F8800110609CF90B007F
:1037C0002B4F00F1C00E420951F82E80920000F0FC
:1037D0001F0002F1604206FA00F002F5614265F353
:1037E000104841F82E80C2F8800110609CF9070053
:1037F00000F1C00E420951F82E80920000F01F0027
:1038000002F1604206FA00F002F5614265F31048E9
:1038100041F82E80C2F8800110609CF9090000F187
:10382000C00C420900F01F008640920051F82C00A5
:1038300002F1604202F5614265F3104041F82C004C
:10384000C2F8806116609F601A7FD207FCD50026FF
:10385000084B636010E000BF00E100E00060004042
:10386000CC1000200040084000001F1F1000079DE2
:1038700011040100424943533046BDE8F081EB6832
:10388000002BF9D09A681868136A98473046BDE84B
:10389000F081034A0349BCF1020F08BF0A4639E729
:1038A00004FF00FF24FF00FF2DE9F04184B0EFF397
:1038B0000383103B5BB22C4A03F1C00152F8210094
:1038C0002A4C6FF3104042F8210054F82340E66977
:1038D000336923B1236923B104B0BDE8F0812369C2
:1038E00043BB0021226AD4F82480936823F4801318
:1038F00043F400139360E160B8F1000FECD0A56AC7
:103900006F463DB395E80F0087E80F0033788022BB
:103910002B6000232A71AB60E36A2846EB60C04746
:10392000A46A002CD8D097E80F0084E80F0004B0F8
:10393000BDE8F081A27802F003010229E1680BD012
:10394000206A0D78456002F003029B1A0A44C4E91C
:103950000323C0E73D46D9E70888256A20F4DC4008
:1039600080B26860EFE700BF00600040CC1000202C
:103970002DE9F04186B0EFF30383103B5BB24B4A75
:1039800003F1C00152F82100494C6FF3104042F896
:10399000210054F82340E769FB68002B7DD0A36920
:1039A0006BBBA27802F003010229216A0E680CBFEA
:1039B000C6F30806F6B20196002B44D1D4F8248051
:1039C000B8F1000F18D0D4F828C002ADBCF1000F38
:1039D00065D09CE80F0085E80F003B786046CCF886
:1039E000003004238CF80430E36ACCF80860CCF88B
:1039F0000C30C047A46AFCB906B0BDE8F0810023D2
:103A0000D4F82480C4E90533B8F1000FF4D0A66AD5
:103A100002AD002E45D096E80F0085E80F003B78F8
:103A20000122336000233271B360E36A3046F360F1
:103A3000C047A46A002CDFD095E80F0084E80F008F
:103A400006B0BDE8F08102F0030201A9606904F04C
:103A500025F8D4E90513A27802F0030211449B1A59
:103A6000C4E90513002BC7D1676A002FC4D0A66A2A
:103A700002ADC6B196E80F0085E80F00E3690122A8
:103A80001B78327133600023B360E36A3046F36021
:103A9000B847A46A002CCFD1AEE7A36981E7AC4652
:103AA0009BE72E46BBE72E46E8E700BF00600040DC
:103AB000CC1000202DE9F04184B0EFF303841A4BC1
:103AC000103C64B253F82460D6E90828936823F4C4
:103AD000401323F010039360B8F1000F17D0B56ABC
:103AE0006F46FDB195E80F0087E80F000222002322
:103AF000F169284609782A71AB60F36A2960EB60A6
:103B0000C047B56A1DB197E80F0085E80F00074B65
:103B1000C03453F824206FF3104243F8242004B03B
:103B2000BDE8F0813D46E1E7CC1000200060004098
:103B30002DE9F04385B0EFF30384294B103C64B2C8
:103B400053F82450AB782A6A03F00303022B17685A
:103B5000936C08BFC7F308074FEA23614FEAD343CA
:103B600001F0100003F0200343EA000301F0080114
:103B700018BFFFB243EA010CD90604D5936C1B04AD
:103B800058BF4CF0400C936ED5F8249043F0C853C6
:103B90009366B9F1000F16D0AE6AE846F6B196E822
:103BA0000F0088E80F00EB6930461B7886F804C0E8
:103BB0003360EB6AB760F360C847AD6A1DB198E83F
:103BC0000F0085E80F00074BC03453F824206FF333
:103BD000104243F8242005B0BDE8F0834646E2E7F2
:103BE000CC10002000600040CB6870B403F5800367
:103BF00003F50A631B0241608360EFF3108C01221E
:103C000082F31088244CCB68E568C3F10E0302FAF6
:103C100003F325EA0303E360E3688CF310888B78F1
:103C20000D881B0743EA0513002591F803C084683B
:103C300043EA4C7323604B68C3608B680561436142
:103C4000164B036091F91030AB4221DB497C03F144
:103C50006044134E0901C9B204F5614484F80013AD
:103C600046F8230059090F4803F1C004890003F006
:103C70001F0302FA03F301F1604250F8241002F529
:103C8000614265F3104140F82410C2F8803113609E
:103C9000002070BC704700BF0040084054504700EF
:103CA000CC1000200060004003469A680020136892
:103CB00043F008031360704703469A6800201368B6
:103CC00023F4803323F00F03136070470246926899
:103CD000024B1268002013400B6070470F00010078
:103CE00084460020CCE90432CCF80C10704700BFA9
:103CF000436893F91030002B1BDB012110B45A09E3
:103D00000E4C03F01F03203201FA03F344F8223073
:103D1000BFF34F8FBFF36F8F00214268084B92F9BA
:103D200010205DF8044B43F822100023036018466E
:103D30007047002303601846704700BF00E100E0B1
:103D4000CC10002030B583B0EFF303840E4B103C51
:103D500064B253F824502869A0B1036801936A69DA
:103D6000EB68026098472B6913B12B69019A1A60BE
:103D7000064BC03453F824206FF3104243F824203C
:103D800003B030BD01A8EAE7CC100020006000407D
:103D90000022034610461A60704700BF30B4EFF3AC
:103DA0001084012383F310881D4B186828B94FF045
:103DB000400C1C4D287385F80CC018680130186041
:103DC00084F31088D4034FEA1120C9B219D400013A
:103DD000154C014444F82120EFF31082012181F3B6
:103DE0001088196811B11968013919601B681BB96D
:103DF00080200C490B73087382F31088002030BCBC
:103E00007047094C01EB001C54F82C5000016FF373
:103E1000104544F82C5022F4803544F82C50D7E754
:103E2000C810002000FD014000F801400B0A10B44A
:103E30001B01064C53FA81F154F821300020C3F3E2
:103E400040035DF8044B1370704700BF00F8014059
:103E5000090A490101F1804101F5F8314B68002060
:103E600013807047090A490123EA020C01F18041DD
:103E70001A4001F5F83142EA0C4200208A6070478E
:103E80000123C8B283404AB91A040B0A5B0103F14B
:103E9000804303F5F83300209A6070479AB2F4E744
:103EA000090A490101F1804101F5F83110B40C68AB
:103EB00002EA030C4CEA040C62EA030202EA0C0276
:103EC00000205DF8044B0A60704700BF090A4901F1
:103ED00001F1804101F5F8314B680020C3F30F4335
:103EE00013807047012310B44FEA112C4FEA4C1C89
:103EF0000CF1804C0CF5F83CDCF80440C9B203FA34
:103F000001F18BB201EA1441C91AB1FA81F14909F0
:103F100000205DF8044B1170704700BF090A490189
:103F200023EA020C01F180411A4001F5F83142EA1E
:103F30000C420020CA607047012A14D04FF4803030
:103F40000B0A5B0103F1804303F5F83310B4CAB2E6
:103F5000DC6800FA02F22243120C120400205DF821
:103F6000044BDA6070470B0A5B0103F1804303F5F1
:103F7000F833D868C9B28A40024392B20020DA60AE
:103F8000704700BF70B5EFF31082012383F31088F0
:103F9000244E33681BB924490B7340230B733368D9
:103FA0000133336082F31088038843B3406803F120
:103FB000FF3E1FFA8EFE00F1080C1C4C0CEBCE0EDF
:103FC00006E0E645604644F8231018D00CF1080CD2
:103FD00082880168130A1B01C80321F4803553FA53
:103FE00082F3EED554F82320E6456FF3104244F8EF
:103FF0002320604644F8235044F82310E6D1EFF321
:104000001082012383F31088336813B13368013BB6
:10401000336033681BB9802003490B73087382F344
:10402000108870BDC810002000FD014000F801405C
:1040300008B5034B03600846FFF7A4FF002008BD46
:1040400054524F5008B50846FFF79CFF002008BDAA
:10405000F0B50346002591F902C01B4C4FEA8C02D3
:1040600002F1804280F804C002F5C042D1E902703A
:10407000D2F80063C2F80053C3E9027091F800E07F
:10408000BCF1000F83F805E004F80E500D79C878F4
:1040900040EA05104D7940EAC510C0B204F80E00A0
:1040A000C2F800630BDB4A78084812010CF160414A
:1040B000D2B201F5614181F8002340F82C30044A66
:1040C00000201A60F0BD00BF00600040CC1000204E
:1040D000554349000346012110B493F904200D4CC7
:1040E00002F1C00C530902F01F0201FA02F254F867
:1040F0002C109B0003F160436FF3104144F82C1027
:1041000003F561430020C3F880215DF8044B1A6079
:10411000704700BF0060004010B582B0EFF3038429
:10412000164B103C64B253F82420154950790B5CAF
:1041300003F00303032B0FD0C03451F824306FF386
:10414000104341F82430936823B1D268CDE90020B0
:104150006846984702B010BD936823B1D268CDE994
:10416000002068469847064BC03453F824206FF36C
:10417000104243F8242002B010BD00BFCC10002034
:104180000060004003460020D3E90223936070479B
:1041900003460020D3E90223536070470346002002
:1041A000D3E90223D3607047034630B4D3E9012337
:1041B000D2690020D2E9011444F00045D46841F0EE
:1041C000004144F000445D619C61D2E90442196100
:1041D0005C629A6230BC70474FF0004100228368F5
:1041E00010461961596199615A629A62704700BF1D
:1041F00010B443681A788368032A13D84C1E9C664F
:104200001AB94908013959659965DA6AD20705D49E
:104210004FF4AA01C2685C661964DA6000205DF898
:10422000044B70470C469966EFE700BF30B4D0E905
:10423000012310785A6E03280C4D98BF01320C4CA4
:104240008A60D86A2A6A2368C2F3026C03FA0CF304
:104250004FF0010C30BC02F00702C0F3C350D34052
:10426000C3404B60002081F800C0704700E001406F
:104270005812002003469A680020D36AC3F3000353
:104280000B71936C0B60704784460020CCE90632BA
:10429000CCF81410704700BF002826DB4FF0010C4B
:1042A00010B400F160430901104CC9B203F5614339
:1042B00083F800130E4B44F8202000F1C00253F89D
:1042C00022106FF3104143F8221043099B0000F0C5
:1042D0001F0003F1604303F561430CFA00F0C3F8DB
:1042E00080015DF8044B186070477047CC100020C7
:1042F0000060004030B4436893F91220DB69002A63
:1043000010DB012402F01F05AC4051092A4D203179
:1043100045F82140BFF34F8FBFF36F8F002427492B
:1043200041F8224093F92420002A10DB012402F0F6
:104330001F05AC405109204D203145F82140BFF305
:104340004F8FBFF36F8F00241C4941F8224093F92F
:104350002520002A10DB012402F01F05AC40510982
:10436000154D203145F82140BFF34F8FBFF36F8FBC
:104370000024124941F822409B6AA3B193F901300D
:10438000002B10DB01210C4C5A0903F01F052032D1
:10439000A94044F82210BFF34F8FBFF36F8F002165
:1043A000064A42F823100023D0E9022130BC036002
:1043B000184691605363704700E100E0CC10002084
:1043C000F0B5D0E9010390F800E05D6EBEF1030F97
:1043D00002F0030498BF013509B1A9422DD3586BEF
:1043E000D70754BF00F01F00C0F30440BEF1030F15
:1043F00007D9000980F0010061B900284FD10225DA
:104400000BE000F00C00A0F10400B0FA80F04009CD
:104410000029F2D0A9423DD20325186B56062CD5AF
:104420001A6C012C42F480021A644FD065F31140DB
:10443000002C4BD118630020F0BDBEF1030F33D820
:104440004E1E02F0080000280BBF032705274FF07F
:10445000020C4FF0040C12F00205186B26D00CF180
:10446000120C123703EB8C0C03EB8707CCF80460BB
:104470007E6056064FF00005D2D4012C28D0022AC7
:1044800065F31140D4D1CDB920F0407028431863B2
:104490000020F0BD00280CBF03250225BDE7002D3C
:1044A00014BF03250225B8E70E46CAE7A4440CF161
:1044B000120C03EB8C0CCCF80460AFE7BEF1030FD9
:1044C0005C6E08D8013491B1A14210D22D06DBE711
:1044D000022AD8D0FAE7A9B95A6BC2F304421209EA
:1044E00082F0010289B9CAB94FF00075CCE75A6B66
:1044F000C2F3044202F00C02A2F10402B2FA82F208
:104500005209EFE7A142E7D2E0E7A1420DD3002A2A
:104510000CBF4FF040754FF00075B5E7002C14BF8D
:104520004FF040754FF00075AEE74FF04075ABE7C8
:104530002DE9F04F01260A7C0D4606FA02F3C3600E
:10454000C3F30903044683B04160002B40F0A3800D
:1045500006740021AF4B13446A691B02A3606261B9
:10456000D5E90636C4E90613EFF31080012181F383
:104570001088A94B1A6922F000421A611B6980F366
:104580001088D4F80CE01EF00F0F0ED0EFF310805F
:1045900081F31088A14AE16853889BB223EA0103A2
:1045A000538080F31088D4F80CE000274FF42542A4
:1045B000A3681A60DF62DF639F642978287A6A68DB
:1045C00003294FEAC05002F1FF3800F0FE8028D9DD
:1045D00040EA0140D8620027D6E906984FF0004033
:1045E000D6F82CC01861586198615F629F62C3F869
:1045F0001C90C3F820809A665A6662685F6E1078D5
:10460000EA68032800F2E9800137002A00F0ED8013
:10461000BA4280F0EA804FF001094FF00308013AF6
:104620001CE0D8624FF00040D6E906A9D6F82CC0AD
:104630001861586198615F629F62C3F81CA0C3F85B
:104640002090C3F86880C3F86480002940F00C8192
:104650004FF001094FF003085208013A5A659A6574
:10466000BCF1000F1AD13278002A40F0A1806246D6
:10467000B078A0B1F77802294FEA071040EA871016
:1046800000F0EE8040F216810327384342EA0042F0
:1046900042F0807203E0002303745AE7624640F25E
:1046A000FF3A287CB76A2AFA00FA1AF0010A1CBFFE
:1046B00000205864002F00F08C80B87897F803B081
:1046C000000640EA0B7097F804B040EA0B4098638C
:1046D000B868C3F88C00002864D001200190BAF1BA
:1046E000000F14D097F819A097F818B04FEA0A2ACB
:1046F0004AEA8B1A97F81AB0F8684AEA0B3AC3F8F4
:1047000044A0C3F89000386918677869D867BCF18D
:10471000000F09D197F81CA097F81BB04FEA4A6A1E
:104720004AEA4B2A42EA0A020198C3F88800BCF11F
:10473000000F07D196F8210096F820C0400740EA04
:104740004C3002434FF4AA000129186402D1002121
:10475000D9641965C3F80CE05A63C3F83080C3F814
:1047600030902246697C95F91200FFF795FD2246AC
:1047700096F8221096F92400FFF78EFD224696F84F
:10478000231096F92500FFF787FD2FB122463978CF
:1047900097F90100FFF780FD0020214B236003B053
:1047A000BDE8F08FF868003818BF0120019096E747
:1047B000707802294FEA001242EA801252D074D96E
:1047C0000320024342F4807252E7424640F48030B4
:1047D00000E79F63C3F88870A9E73AB3BA4225D2CD
:1047E0004FF001094FF0030838E7586B00F01F0045
:1047F00000F00C00A0F10400B0FA80F04009EAB922
:1048000000283BD14FF0FF32DFF81890DFF8188016
:1048100024E700BF901640000040084000A016406A
:10482000545047000100020203000202586B00F0DE
:104830001F00000980F00100002AE1D0BA422DD308
:1048400000281F4A1F4814BF9146814602F1020208
:1048500000F1020014BF904680464FF0FF32FDE6A3
:10486000092712E70920ACE702293FF4C6AE4FF052
:1048700001094FF003084FF0FF32EFE61148104AEC
:10488000002F14BF8146914600F1020002F102029E
:104890000CBF904680464FF0FF32DFE64FF0FF320C
:1048A000DFF82090DFF82080D8E6002814BF092028
:1048B000062086E7002F14BF09270627E5E600BF7C
:1048C00001000202010003030300030370B5064662
:1048D000EFF31084012282F310880E4B986820F4C5
:1048E000804098609B6884F3108800230A4C0B4D2D
:1048F00022424FEA420205D031F813E003F1080CDE
:1049000025F82CE001331E2BF2D1054B002033603B
:1049100070BD00BF00400840FFF0FB3100200840A0
:10492000434C4500024B0831002023F821207047FA
:10493000002008408022024B00201A70704700BF00
:104940000020084030B490F90400204D82B001915D
:1049500000F1C00C009255F82C201D4C6FF318622A
:1049600045F82C2055F82C10C1F3080141F4004102
:10497000E28992B28A42FBD008222274019A1AB3C9
:10498000144A019C52F820104C60009919B152F859
:104990002010009C8C6052F82010CA7802F0C002EF
:1049A000802A0FD002B9CB8118210020084B074A7A
:1049B000197452F82C3043F0807342F82C3002B056
:1049C00030BC70478B81EFE7024ADEE700600040B1
:1049D0000054004000000020062070470620704769
:1049E000034693F904300549C03351F823200020D1
:1049F00042F0807241F82320704700BF0060004001
:104A0000034693F90430054AC03352F823100020BE
:104A10006FF3186142F82310704700BF0060004038
:104A200010B40024154B90F9042053F82220D378B9
:104A3000C1E9004413F0C0030BD04FF48074D08957
:104A4000802BC0B2C1E902400DD000205DF8044BBC
:104A500070474FF48030D3895DF8044B9BB2C1E9B5
:104A60000203002070474FF4803093895DF8044BB7
:104A70009BB2C1E900030020704700BF0000002086
:104A80000346002270B493F90410084C01F1C00CE5
:104A900054F82C50064E6FF3186544F82C5010460D
:104AA00046F821201A6070BC704700BF00600040CB
:104AB00000000020294AF8B5137805460C4673B368
:104AC000636893F90000002846DB254E56F8203035
:104AD0000BB10820F8BD287124682346DA781946FE
:104AE00012F0C00F15D0DA891033D2B242EA022296
:104AF00023F8022C8A7812F0C00FEFD10822182177
:104B0000184B1A74184A46F82040197000202A6081
:104B1000F8BD8A78103312F0C00FDFD1EEE701261E
:104B20001670EFF3108086F31088104A116821F494
:104B300080011160126880F31088094F19464FF404
:104B4000C072384602F0B7FF064B5F611E736368A0
:104B500093F900000028B8DA0B20F8BD7810002087
:104B6000000000200054004000435444004008402E
:104B700010B590F904E01E4B0EF1C00C53F82C2038
:104B80001C4C6FF3186243F82C2053F82C20C2F30E
:104B9000080242F40042E3899BB29342FBD00B46E9
:104BA000DA78184612F0C00F1BD0DA891033D2B26F
:104BB00042EA022223F8022C827812F0C00FEFD1D1
:104BC000082218200B4B1A740B4A42F82E10084A80
:104BD000187052F82C30002043F0807342F82C30CB
:104BE00010BD8278103312F0C00FD9D1E8E700BFB2
:104BF0000060004000540040000000200A7830B4FB
:104C0000530803F5800303F5B9531B0202F00102B8
:104C1000C3604270EFF3108C012282F310880B788E
:104C2000174CD340E568C3F1140302FA03F325EAF5
:104C30000303E360E3688CF31088EFF3108482F3DE
:104C400010884278B2B9C5682B7962F386132B714C
:104C500084F310884A68C468D378B2F80120DB0175
:104C6000DBB2637102810A78064B0270436030BC8C
:104C700000207047C26813796FF3C7131371E7E719
:104C800000400840004341440346DA685B78002056
:104C900022F81310704700BFEFF31081012383F354
:104CA0001088427842B9C068037962F386130371B1
:104CB00081F3108800207047C26813796FF3C7131F
:104CC000137181F310880020704700BFEFF3108C40
:104CD000012383F31088437873B9C268117963F3B1
:104CE00086111171117A63F3861111728CF3108899
:104CF0000023436018467047C3681A796FF3C712E0
:104D00001A711A7A6FF3C7121A72EFE738B5037A7D
:104D10000446002B3BD00021C368427833F8125080
:104D200023F81210ADB2EFF3108C012383F3108837
:104D3000E36840781A79002851D061F3C7121A71DC
:104D40001A7F42F080021A771A7A42F080021A72B1
:104D50001A7942F080021A718CF310880121042024
:104D600001F08CFEEFF31081012383F31088627849
:104D7000002A44D1E068037F62F38613037781F34E
:104D80001088E3686278002023F8125038BDEFF3F2
:104D90001080012282F31088617889B1E268647A18
:104DA000117963F3C7111171137F64F3C71313777C
:104DB000137943F08003137180F31088002038BD0D
:104DC000E368647A1A7961F386121A711A7F64F3C0
:104DD00086121A771A7942F040021A71ECE760F3F2
:104DE00086121A711A7F42F040021A771A7A42F03C
:104DF00040021A721A7942F040021A71ACE7E26876
:104E0000137F6FF3C7131377B9E700BF002330B4E4
:104E10000168436091F91530002B0DDB0124364DFC
:104E20005A0903F01F03203204FA03F345F8223035
:104E3000BFF34F8FBFF36F8F91F91730002B0DDB4E
:104E400001242D4D5A0903F01F03203204FA03F305
:104E500045F82230BFF34F8FBFF36F8F0B6843B914
:104E60004FF48052244BC3F88020BFF34F8FBFF321
:104E70006F8F4FF40052204BC3F88020BFF34F8F49
:104E8000BFF36F8F1D4A0568936993692C6823F0FF
:104E9000070343F001039361D36903F00703012B78
:104EA000FAD102EB04135B68936993692C6823F0D1
:104EB000070343F005039361104AD36903F0070326
:104EC000052BFAD102EB0412536803F007030372B7
:104ED000EFF31080012383F31088094B9A6842F0A6
:104EE00000629A609B6880F31088002030BC054BFC
:104EF0000A6843F82200704700E100E000000B4020
:104F0000004008407C1000200368F0B51B683F4C4F
:104F100001EB831104EB010C9CF87430DB076BD4BC
:104F20004C261379507901FB06F6DB0743EA8073C0
:104F300010680343A019C0F804369479082C42D9AC
:104F4000182C5CD923090B334C2000FB01F1304DA8
:104F50001B070D4401F1804101F53021C1F80836ED
:104F6000936802F10C0E0D32AA1A03F00703022A0D
:104F7000C1F80C3604F1FF3734D9704629460023B6
:104F8000221F9208013250F8046B01339A4241F813
:104F9000046BF8D8B4EB820FA7EB820705EB820312
:104FA0000EEB82010AD01EF8220005F822002FB174
:104FB0004A78012F5A7001D08A789A700123002014
:104FC0008CF87030F0BD2307C0F80836936803F002
:104FD0000703C0F80C36002CF0D00D4D02F10C0E7A
:104FE0003544671E0137013D77441EF8013BBE453D
:104FF00005F8013FF9D1E1E74EF66320F0BDA4F1D9
:1050000008039B080833DBB29EE700BF00000B409B
:1050100010060B4003461B6830B41B680E4C002082
:1050200004EB03139A6895B24FEA124C120E0D600E
:1050300081F80DC00A73DA6892B20A61626B4A6045
:10504000226E30BCD24302F003028A60DA68120C8E
:105050001204DA60704700BF00000B408446002055
:10506000CCE90432CCF80C10704700BF1F294FF078
:105070000103F0B53D480ED8406B8B40034261D030
:105080004C2501F0070405FB04F4394BC80804EB78
:10509000802003440AE0006EA1F12004A3400342F3
:1050A00050D14C2001FB00F0324B0344186802F150
:1050B0000C07C0F3807454719C6803F10C0E04F06B
:1050C0000704946020F06044C00F107158681460A9
:1050D000294C000F255C95716E1E3DB303F10D0048
:1050E000381A022837D9072E35D9F4463846002316
:1050F0002A1F920801325CF8044B01339A4240F8AF
:10510000044BF8D8B5EB820FA6EB82060EEB8200BB
:1051100007EB82030AD01EF8224007F822402EB186
:105120004278012E5A7001D082789A701F290BD8CC
:1051300001220E4C02FA01F1636B002023EA010107
:105140006163F0BD2420F0BDFF220C4B89000B44AD
:1051500000205A60F0BD0C350B322B441EF8010BB9
:105160009E4502F8010FF9D1E0E700BF00000B40B7
:1051700020090B40A0FB0A404CA70000C8FF0A40D2
:10518000F0B406680B06376801F00F0232D44FEA1C
:10519000071C0CF1804303F530235B685C0719D4CE
:1051A000DB0701D4052A17D0214961440B6823F09D
:1051B000070313430B604B6803F007039A42FAD1CD
:1051C000F0BC0CF1804303F530235B6803F0070368
:1051D00003727047C907E3D4154961440B6823F093
:1051E000070343F001030B604B6803F00703012B37
:1051F000FAD1DBE70F4CD4F818C0A56925F00705F4
:105200001543A561E36903F007039A42FAD11CF044
:10521000010F0AD0CD0708D433694FEA071CDB69B8
:105220009A68E263DB682364CAE74FEA071CC7E7B2
:1052300004000B4000000B4010B5437A934206D1A6
:10524000037A994201D0FFF79BFF002010BD03684D
:105250001B681B0103F1804C0CF5302CDCF804407A
:1052600014F0040F134C1C440AD0236823F00703E6
:1052700043F001032360636803F00703012BFAD1B5
:10528000236823F0070343F002032360636803F0FD
:105290000703022BFAD1DCF8043003F00703037292
:1052A000DCF8044024F0E06444EA0264CCF80440F2
:1052B0004272C6E704000B4000222DE9F84F8B68CC
:1052C000D1F810B0D1F800A0C360CB680E460160E1
:1052D0000546C0E90423DBF81C10EFF3108001231E
:1052E00083F31088BF4B9A6822F000629A609B6833
:1052F00080F31088BC4AD369DB0700F12381BAF13F
:10530000000F40F061810B7D4FF480514FF48074A9
:10531000B64A1B01B648DBB282F80C33B54BC0F875
:1053200030A0D3F830036AF31040C3F83003B24B17
:10533000C2F8801111601D60AB4B9C62DBF800402D
:105340004FF0000EDFF8A092DFF8BC820AF00107F0
:105350004FEA1E120EF00F0C08EB0C1C42F4807288
:10536000C9F8282094E80F008CE80F00DCF808301A
:105370000EF1010E67F3C713BEF1200F04F1100404
:10538000CCF80830E4D10022974B9A622B689B4AF4
:10539000196809010A4401F1804101F530214B6887
:1053A000136823F0070343F001031360536803F00D
:1053B0000703012BFAD14A6802F007022A72DBF8D0
:1053C0001440D6F804C060682268FF28074628BF4A
:1053D000FF27DCF8001000F1FF3E501EDCF804202F
:1053E0000139013AC1F30901C0B240EA0E2041EA95
:1053F0004241DCE902E20EF1FF3C41EA4C61013A34
:1054000041EA8221D4E902C20CF1FF3440EA0440AF
:105410004FEA0A1404F1804404F5302421604FEA75
:105420004A11013A01F1804101F5302140EA026060
:10543000C1F800019BF81820520242EA074242F4E8
:10544000806242F00102C1F80421DBF808106C4AC6
:1054500042F82A10DBF8102042F00302626096F94D
:105460001520002A20DB317D02F160400901604CEB
:10547000C9B200F5614080F800135E48510944F854
:105480002250890002F1C00402F01F02934001F192
:10549000604250F8241002F561426FF3104140F869
:1054A0002410C2F88031136096F91730002B22DBEC
:1054B000327D03F1604112014D48D2B201F56141E4
:1054C00081F800234B4A40F8235003F1C00152F801
:1054D00021006FF3104042F8210001215A09920087
:1054E00003F01F0302F1604202F5614201FA03F387
:1054F000C2F8803113603C4A286894699169036856
:1055000021F007019161D1694E07FCD1E10705D572
:105510000169C9698868D063C96811641B0103F116
:10552000804303F530235B68284603F007032B72A2
:105530000021FFF725FE0023324A2B8118466A60BE
:10554000BDE8F88FD3691F07FCD493699369286875
:1055500023F0070343F0010300689361224AD369F3
:1055600003F00703012BFAD14FF4001702EB0013ED
:1055700000204FF400545B68DFF874C003F00703A9
:105580002B724B685361D762C2F8B0000B69174F9A
:1055900013638B68D363CB6813644B7D1B01DBB251
:1055A00087F80D33134BCCF83400D3F834C360F3D1
:1055B000104CC3F834C3C7F880413C600B6893615A
:1055C000BAF1000F3FF49FAE4FF480720A4BBAF16C
:1055D000010F43F82A50044B9A623FF4D4AEDBF833
:1055E0000040ADE60040084000000B4000E100E054
:1055F000CC100020006000407C10002004000B4014
:1056000088000B404446435220010B4070B5B0B0B7
:10561000EFF30384344B103C64B2602200216846EF
:1056200053F8245002F047FA0C2C35D04FF4807612
:1056300000212B681868030103F1804303F5302330
:10564000DA68ADF8046092B202922E696A69D96094
:10565000CDE903120090002E43D0602231460DEBBD
:10566000020002F01BFA60226946304602F016FA88
:105670003046EB689847286920B160220DEB0201A3
:1056800002F00CFA194BC03453F824206FF3104287
:1056900043F8242030B070BD4FF480500021144AEC
:1056A000136AADF804001D0C1B0403EB0573029391
:1056B0009B0311620ED5926E92FAA2F2B2FA82F2B6
:1056C000930003F1804303F53023596C039221F0DA
:1056D00004015964074B1D686B692E690493002E01
:1056E000BBD16E46C4E700BFCC1000200060004074
:1056F00000000B407C1000202DE9F04F444EB3B069
:10570000F36E93FAA3F3002B6DD0B3FA83F0012864
:105710000346019067DC01274FF48061326E07FA7F
:1057200000F02033104205930090ADF80C1050D1DA
:105730004C223849A3F10E0812FB0313364DDFF853
:10574000E4A01D44019B05F10C0B02FB0369D9F891
:1057500028452B68AA68C3F3807102F007020992FA
:105760006A68C4F30124120F1AF802208DF8211080
:1057700023F06041DB0F02948DF8222007918DF811
:1057800020301AB159460AA802F088F9FF22234BAB
:1057900053F8244006EB88035A602769636906932F
:1057A000002F32D0394660221AA802F077F9602221
:1057B000384602A902F072F93846E3689847206932
:1057C000F0B160221AA902F069F9336E009A1A4208
:1057D000BDD0019B9B0003F1804303F530235A6C3D
:1057E00022F008025A640A4BDB6E33B90C4AD2F835
:1057F000341363F31041C2F8341333B0BDE8F08FB3
:10580000336E009A1342A2D0E3E702AFD4E700BFA1
:1058100000000B4080F6FFFF20050B407C100020AD
:10582000006000404CA700002DE9F047B0B0EFF356
:1058300003863D4B103E76B253F826502A686B69BA
:10584000D2F800A004930AF1804303F5302393F8C3
:10585000A430CDF800A0002B46D02C69DFF8D490FE
:10586000DFF8D480314FDB074BBF4FF400614FF4BA
:10587000007108EBCA0209EBCA021368ADF8041004
:105880002AF0004A93FAA3F3002B38D0B3FA83F33B
:10589000072B34DC03EB8A123A4492F874106FF34E
:1058A000420182F874100393002C39D06022214603
:1058B0000DEB020002F0F2F860226946204602F089
:1058C000EDF82046EB6898472C6904B36022204627
:1058D0000DEB020102F0E2F80AF1804303F53023F8
:1058E00093F8A430002BBED1114BC03653F82620BC
:1058F0006FF3104243F8262030B0BDE8F0875368BC
:1059000093FAA3F373B1B3FA83F32033C2E70AF136
:10591000804303F5302393F8A430002BA3D1E3E7B1
:105920006C46CEE74023B5E7CC10002000000B40CA
:105930000060004084000B4080000B408268117BB7
:1059400001F00101137BC3F340039942FAD141688E
:105950000B78012B03D0F1230020137370474FF015
:10596000F10CC368087C094941F82030013B5360C1
:105970009360136082F80CC0137B9B07FCD54FF03B
:10598000FF33002053609360704700BF80100020F9
:105990008268117B01F00101137BC3F3400399423C
:1059A000FAD1F02300201373704700BF8268117B87
:1059B00001F00101137BC3F340039942FAD1C3689C
:1059C0000020013B1360704703464FF0F10CD3E910
:1059D0000212013A0A60002081F80CC0704700BF33
:1059E0000346F0229B6800201A737047826892F881
:1059F0000CC00CF0010C137BC3F340039C45FAD19F
:105A00004368C16093F810C00B481B7840F82C1015
:105A1000481E2BB949085160916010600020704702
:105A2000012B06D0022B18BF0021F4D110600020FA
:105A300070470146EFE700BF80100020806890F8B3
:105A40000CC00CF0010C037BC3F340039C45FAD15E
:105A5000043040F822100020704700BF10B4826864
:105A600092F80CC00CF0010C137BC3F340039C456F
:105A7000FAD14368C468D8698C600078502820D077
:105A8000537BC3F302105B060BD54FF40043927BAC
:105A900002F00702D34000205DF8044B4B60087011
:105AA0007047214A214B126A1B68C2F30264A3406B
:105AB000C2F30222D3400028EDD080F00200C340A0
:105AC000E9E71B7C1A48013B50F82300F0B112F8BB
:105AD000F33CA2F58072C3F302145B061CD4124A95
